:020000040800F2
:100000003808002029010008250100082501000802
:100010002501000825010008250100080000000056
:1000200000000000000000000000000025010008A2
:100030002501000800000000250100082501000836
:1000400025010008250100082501000825010008F8
:1000500025010008250100082501000825010008E8
:1000600025010008250100082501000825010008D8
:1000700025010008250100082501000825010008C8
:1000800025010008250100082501000800000000E6
:100090000000000000000000000000002501000832
:1000A0002501000825010008250100082501000898
:1000B000090C00081D0200082501000825010008A0
:1000C0002501000825010008250100082501000878
:1000D000250100082501000825010008D10B0008B2
:1000E0002501000825010008250100080000000086
:1000F0000000000000000000000000000000000000
:1001000000000000000000000000000000000000EF
:100110000000000000000000250100082501000883
:100120005FF808F1FEE700BF0C480D4A08B59042A1
:1001300007D2013A121A22F003020A49043203F0EC
:1001400027FB094809494FF000028842B8BF40F830
:10015000042BFADBBDE8084000F0E8BE00000020F8
:100160002C010020EC47000830010020340400205E
:1001700030B5012185B0022001F0EEFD0021022002
:1001800001F0F6FD002505230E4C01A92046CDE91E
:1001900001358DF80C5001F049FE2046012101F097
:1001A000C3FE01222046114601F0A4FE064B68461C
:1001B000009301F03BF92946204601F08DFE05B081
:1001C00030BD00BF000400401D00010108B3F8B5B8
:1001D0000027104C104D461E0021284601F07CFEE1
:1001E0004FF47A71284601F091FE0021284601F073
:1001F0008BFE0121284601F06FFE27702378002B2B
:10020000FCD000212846013E01F066FE731CE3D1BC
:10021000F8BD7047300100200004004008B50121FE
:10022000064801F075FE00B908BD0121034801F040
:100230007BFE0122024B1A7008BD00BF0004004083
:1002400030010020164991F800C04B780CF10102F2
:10025000D2B20A70C3B9012A19D000B50CF1FF3E21
:10026000BEF1060F07D80378023A134103F00103E9
:1002700018465DF804FBACF10802012A09D90B709D
:10028000022318465DF804FB013B4B70012318461E
:1002900070470CF1020C012381F800C0E8E700BFB1
:1002A000310100202DE9F0470E46F31D23F007032E
:1002B00000AFADEB030D002105469046684632467F
:1002C00003F074FA304AF4005388A4B29C426946A1
:1002D00057D902F1020E18463EF8023FA342FAD364
:1002E0000CB3B8F1000F25D1C446C646BCFBF4F2EE
:1002F00004FB12C24FEADE03EB5C0EF0070843FA80
:1003000008F34FEAD20811F8089003F0010302F055
:1003100007020EF1010E934043EA09037445844439
:1003200001F80830E2D13246284603F031FABD46E2
:10033000BDE8F0874FF0000C6246BCFBF4FA04FB0A
:100340001ACA4FEADA03EB5C0AF0070A4FEAD20E48
:1003500043FA0AF311F80E8002F0070903F00103D3
:10036000013203FA09F343EA08039442844401F892
:100370000E30E2D13246284603F00AFABD46BDE807
:10038000F0871088ACE700BF000000201F4B2DE96C
:10039000F04FD600144683FB0632F317C3EB62031B
:1003A00003EB4302B6EB820F18BF013303EB83026A
:1003B00003EB420306F11002134485B01A46002BEA
:1003C0000390B8BFDA1D580742F22443039D4FEA59
:1003D000E202019225F8023B1CBF0132019228463D
:1003E00022460F4603F0D4F9002E05EB040E40F32D
:1003F0005781002140F675490B460C468C46DFF8C4
:1004000010A0DFF8108002950BE000BFABAAAA2A6B
:10041000ABAAAAAA00F8FFFF66454FEA430300F023
:10042000A4806FEA0C024FEAEC000CF1010C17F803
:1004300000B0AAFB0C5002F00702C00800EB40001D
:100440004BFA02F202F00102BCEB800043EA020325
:10045000E2D1DA02B2F5006F80F254810346C2F3B2
:10046000802B4BEA010104F1010B1BF0070B0CBFC1
:100470000EF8011B4FEA410BC2F3402141EA0B0B7E
:10048000A11C11F007010CBF0EF801BB4FEA4B0194
:10049000C2F3002B4BEA010BE11C11F007010CBF6A
:1004A0000EF801BB4FEA4B01C2F3C01B4BEA010B34
:1004B000211D11F007010CBF0EF801BB4FEA4B01E3
:1004C000C2F3801B4BEA010B611D11F007010CBF49
:1004D0000EF801BB4FEA4B01C2F3401B4BEA010B84
:1004E000A11D11F007010CBF0EF801BB4FEA4B0133
:1004F000C2F3001B4BEA010BE11D11F007010CBF19
:100500000EF801BB4FEA4B01C2F3C00B4BEA0101ED
:1005100014F0070B06BF0EF8011B59464900C2F341
:10052000800B4BEA010B04F1090111F0070118BF20
:100530004FEA4B01C2F3400242EA010204F10A0110
:1005400008BF0EF801BB0B34490714BF43EA42034E
:100550000EF8012B14F007010BBF0EF8013B5900F8
:100560000B46002366457FF45CAF029D002800F037
:10057000E280DB02B3F5006F13DB4FF4800240F63C
:100580007547724E134208BF5210FBD01046002A26
:10059000B8BF02F2FF70C01207FB00F043403342C5
:1005A000F0D1C3F380221143621C12F007020CBF8A
:1005B0000EF8011B4A00C3F340211143A21C12F0A4
:1005C00007020CBF0EF8011B4A00C3F300211143C0
:1005D000E21C12F007020CBF0EF8011B4A00C3F325
:1005E000C0111143221D12F007020CBF0EF8011BAF
:1005F0004A00C3F380111143621D12F007020CBFC1
:100600000EF8011B4A00C3F340111143A21D12F062
:1006100007020CBF0EF8011B4A00C3F3001111437F
:10062000E21D12F007020CBF0EF8011B4A00C3F3D3
:10063000C0010A4314F0070106BF08460EF8012B5B
:100640005000C3F3800104F1090212F0070241EAED
:10065000000118BF4A00C3F3400040EA020004F161
:100660000A0208BF0EF8011B12F0070118BF410073
:1006700003F0010304F10B0441EA030108BF0EF883
:10068000010B14F0070306BF0EF8011B19464900C1
:1006900033B1E34303F0070301FA03F30EF8013B20
:1006A000039B019A13449E4548D1971E3946002268
:1006B0002846FF00FFF7F6FD002F1FDD00214FF455
:1006C00095424FF0010CCE10AC5D01F0070E82EAAE
:1006D000520044FA0EF300F0010003F0010343401E
:1006E0000CFA0EF803FA0EF324EA0804013123434E
:1006F00052088F42AB5542EA8032E4D1019805B0EE
:10070000BDE8F08F4FF48003029D134208BF5B10D9
:10071000FBD09B46002BB8BF03F2FF7B4FEAEB2BCD
:1007200009FB0BFB82EA0B0212EA080FEDD10295DE
:1007300002F0010393E604F00703A9E740F20B116E
:10074000034B044A044802F0F3FF00BF00F8FFFF28
:10075000404600089C46000870460008F0B5802717
:100760001F4E83B0002205460C461E4840F225511C
:10077000C6F8847001F046FC40F22551194801F09A
:100780008BFC4FF45871174801F086FC0021154886
:1007900001F02AFC01214FF4802001F0D1FA00235E
:1007A0004FF4402210490F484B608A608B810D60E6
:1007B00001F0BEFB0D4B01A8019300F037FE0121B3
:1007C000084801F011FC0CB903B0F0BD012240F261
:1007D0002551044801F016FC776003B0F0BD00BF5E
:1007E00000E100E00048004038010020270F02012E
:1007F00000214FF0006000F04FBE00BF10B501F0C7
:10080000AFF94FF4803001F0CFF901F0E9F9012898
:1008100000D010BD0446102000F0C6FF022000F0FA
:10082000B9FF902001F006FA4FF4A06001F016FA2B
:100830004FF4806001F008FA204601F0E9F901F078
:10084000F1F90428FBD110BDF8B5114E114B344617
:10085000114D44F8103F28462146104F00F0B0FFDC
:1008600028460F2101F042F90121384601F040F9F4
:100870000A20FFF7ABFC3846002101F039F9482384
:1008800021462846F374BDE8F84000F099BF00BF48
:1008900038010020008001100008014000043000F1
:1008A0002DE9F843814C0121042001F049FA214649
:1008B0007F4B804841F8103F00F082FF0121082063
:1008C00001F03EFA21467C4B7C4841F8103F00F095
:1008D00077FF214604274FF48049794B774841F848
:1008E000103F00F06DFF754804F11001E774A4F8A3
:1008F000109000F065FF0121102001F021FA21463F
:10090000704B714841F8103F00F05AFF21466F4B81
:100910006A4841F8103F00F053FF4846012101F0BA
:100920001BFA4FF082736361182300254FF40068AF
:1009300023620723664804F11401A384C4F81880D5
:10094000A58301F021FA0121614801F05BFA012140
:100950005F4801F043FA4FF482735D4804F11401DB
:10096000E38201F011FA21465A4B524841F8103FF8
:1009700000F026FF4FF480634E4804F110012382FB
:10098000E77400F01DFF29464FF41650FFF7E6FE0E
:100990002146514B494841F8103F00F011FF4748AC
:1009A00004F11001E774A4F8108000F009FF0121A0
:1009B0000226084601F0B8F9484800F02BFE484BE3
:1009C00001214848E362C4E90C56256500F0ACFDFE
:1009D000454B0022A3628023C4E90E234FF48072AA
:1009E0004FF48063C4E9102320224FF400533B48A6
:1009F00004F12801C4E9122300F0A0FE01213748C8
:100A000000F0BCFE214640232A4821F8103FE5743F
:100A100000F0D6FE20232146264821F8103FE57439
:100A200000F0CEFE284601F023F901214FF40070BA
:100A300001F086F940F201174FF4602200232948A3
:100A400004F15801C4E91823A56584F86860A4F886
:100A50005C7000F039FD032301220521214800F0DC
:100A60008BFD0323324606211E4800F085FD01213F
:100A70001C4800F059FD1B48012100F04BFD1948AE
:100A800000F05CFD174800F05FFD0028FAD1154822
:100A900000F05EFD134800F061FD0028FAD1BDE8CA
:100AA000F84301210F4800F05DBD00BF3801002070
:100AB000001001100008014080010110000C0140ED
:100AC00000A0011800200110001001400080011852
:100AD000003800400002011800040118080002401C
:100AE000D0010020002401404C24014070B5184C76
:100AF000184B2146184841F8103F00F061FE0121D3
:100B00004FF4804001F028F94FF082724FF40063F7
:100B10000021C4E9052307231822104D04F114060F
:100B20002846A1833146A384226201F02DF928468C
:100B3000012101F067F92846012101F04FF94FF436
:100B4000827331462846E382BDE8704001F01CB94B
:100B50003801002000800118000C014000380040DE
:100B6000012130B5044685B0084601F0F5F80021B2
:100B7000012001F0FDF8144B002293FBF4F305254E
:100B8000013B01A94FF08040ADF80830ADF80A20D4
:100B90008DF80C20019501F049F901214FF08040BA
:100BA00001F0C2F901224FF08040114601F0A2F994
:100BB000064B6846009300F039FC01214FF080405D
:100BC00001F08AF905B030BD40420F001C00010160
:100BD00008B540F225510B4801F03CFA38B10948FC
:100BE00001F02EFABDE80840C0B201F017BE4FF484
:100BF0005871044801F02EFABDE80840014801F0A0
:100C00001FBA00BF0048004070B501214FF080407E
:100C100001F07EF900B970BD714C01214FF08040A8
:100C200001F082F92378E3B96E4D2B7953BB237819
:100C300043B92369013B236123B901232375236948
:100C4000013B2361AB68013BAB60002BE3D1A37F89
:100C500093B12B68002B49D10023A377C823AB6045
:100C600070BD6668012E25D06368022B43D063688F
:100C7000032B50D05B4DDAE7E37F1B0612D4012330
:100C8000A377EBE7A369732001335A4202F0030212
:100C900003F0030358BF5342D9B20122A36100F00D
:100CA00025FAC4E72B68002BE9D080214E4800F0DC
:100CB0001DFFE4E7A068FFF7C5FA637B2073002BF4
:100CC000D8D10228474D56D0012874D00028AED183
:100CD00001463246732000F009FA2B68002BA6D09B
:100CE0004FF48071404800F001FFA0E780213E48AA
:100CF00000F0FAFEB0E7E38AA2689BB2D05C00F095
:100D0000C5F9451C0146A06123D00122C9B2732058
:100D100000F0ECF9AEE7E38AA2689BB2D05C00F089
:100D2000CBF90146A061481CEFD1E38A9BB25A1C63
:100D300092B2E282A28B92B2934239D0E38AA26845
:100D40009BB2D05C00F0B8F90146A0614A1C91D07A
:100D5000DBE7E38A9BB25A1C92B2E282A28B92B288
:100D6000934218D0E38AA2689BB2D05C00F08EF95F
:100D70000146A061EAE72B6863BBA3685A1CA26026
:100D80005B7803F0FF02002B7FF451AF64232270E5
:100D9000236122754BE701220321732000F0A6F99D
:100DA00000236422E382A169237022612375CDE7C9
:100DB00001220021F1E702460321732000F096F999
:100DC0002B68002B3FF433AF4FF48071064800F0DE
:100DD0008BFE2CE74FF48071034800F085FECCE7D2
:100DE000A80100208C000020000C01400000000041
:100DF000F0B5474C87B0A36B002B7BDB454ADF1770
:100E000082FB0323C7EBA317BFB2206B02F056FA95
:100E1000414902F05BFB0646606B02F04FFA3E4927
:100E200002F054FB0546E06A02F048FA3B4902F042
:100E300099FA01F0FFFE0022394B02F07DF802F032
:100E400063F90346CDF80660DEB20023226A8DF80E
:100E5000003094F84230ADF801208DF8043094F859
:100E6000432094F84130E06B8DF803208DF8053075
:100E7000ADF80E70CDF80A5002F020FA01F0DAFE5B
:100E800021A3D3E9002301F02DFF02F03DF994F8EE
:100E9000242094F840308DF8122094F846208DF8E4
:100EA0001360012A8DF811308DF8100026D0022A27
:100EB00004BF383B8DF811301421684601F0F2FC74
:100EC0000646184B184D93E803001622C4F8180183
:100ED00084F81C11281D6946ADF81460FFF756FA16
:100EE000043080B2A560A08300F032FA01232370A1
:100EF00007B0F0BD00231F46A36386E764338DF877
:100F00001130D9E7AFF300803BDF4F8D976EA23FE2
:100F1000A8010020D34D62108096184B00007F433B
:100F200000407F4008470008C0020020012600253D
:100F30002DE90048FFF762FCFFF75AFCFFF7B0FC11
:100F40006420FFF70DFEFFF713F901F0E1FA4FF40B
:100F50008071494800F0C8FD8021474800F0C4FD79
:100F600000F0D0F9454800F0EFF8324605216D2039
:100F700000F0BCF829463246712000F0B7F8294647
:100F80003246132000F0B2F83D4C324620211220A8
:100F900000F0ACF8324680210F2000F0A7F804F1F1
:100FA0005003A36025702675FFF7A0FD334800F0BD
:100FB000CBF829463246712000F098F86420FFF7FC
:100FC000CFFD4FF0000A4FF0000B00F0C1F9DFF841
:100FD000B480DFF8B49004F13005237803F0FF0209
:100FE00053BB237D43B3666866BB236A0133236228
:100FF00000F0D4F94FF416720146238D28469BB2B7
:1010000002FB03F31B13E36284F8241001F042F99E
:1010100094F84530012B1CD00122E37FC4E90CABCE
:1010200003F07F03E377C8F800200123636023788F
:1010300003F0FF02002BD4D00021102000F036FA7C
:1010400030BFCAE76368012B0FD0626000F034F94B
:10105000C3E7E17FA26B41F080014A45E177CCBF55
:10106000C8F80060C8F80030DFE70223636000F0D2
:101070006FF9FFF7BDFEB0E7000C01409A19D943A4
:10108000A80100208C00002027460F0009494A785B
:10109000042A0AD0002322B1013380009342C0B257
:1010A000FAD101324A708009704700234FF0FF30B7
:1010B0004B707047920300200B498A78082A0ED0A3
:1010C000002322B1013340009342C0B2FAD1C309D8
:1010D00002F1010214BF022000208A707047002331
:1010E0004FF0FF308B7070479203002010B522B391
:1010F00040F08000000204B20C4311484FF400514C
:10110000A4B200F0F3FC02210E4800F089FE002892
:10111000F9D021460B4800F06FFE0121094800F08C
:101120007FFE0028F9D04FF40051054800F0DCFCA8
:10113000044800F063FEC0B210BD000204B2DBE759
:101140000010014000380040F8B55349074602F04E
:1011500009F95249054602F0B7FA06465049003EE1
:10116000284618BF012602F0B1F902F0C1FA4B4936
:101170000446284602F0A8FA0346002B14BF6FF07D
:1011800017030023751CE4B22846183C1C4402F0E7
:1011900095F8444902F0E6F80146384602F096F91F
:1011A00094FBF5F40546E0B202F088F801462846C3
:1011B00001F0CEFF3C4901F0CBFF3C4902F0D2F8F0
:1011C00002F096FA054604F01F0444EA461444F47B
:1011D00075444FF40051364844F04004ADB200F07D
:1011E00085FC0221334800F01BFE0028F9D021467F
:1011F000304800F001FE01212E4800F011FE0028C9
:10120000F9D04FF400512A4800F06EFC294800F054
:10121000F5FD2C0A4FF40051254844F4764400F0C3
:1012200065FC0221234800F0FBFD0028F9D021468F
:10123000204800F0E1FD01211E4800F0F1FD0028EA
:10124000F9D04FF400511A4800F04EFC194800F054
:10125000D5FDEDB24FF40051154845F4774500F047
:1012600045FC0221134800F0DBFD0028F9D0294697
:10127000104800F0C1FD01210E4800F0D1FD00280A
:10128000F9D00B484FF4005100F02EFCBDE8F840B7
:10129000084800F0B3BD00BF3BB1933F0000F043EE
:1012A00000002041ABAA0A410000C04100007A477B
:1012B00000100140003800404FF4005108B50F48BD
:1012C00000F014FC02210E4800F0AAFD0028F9D01D
:1012D00048F240710A4800F08FFD0121084800F0F3
:1012E0009FFD0028F9D005484FF4005100F0FCFBA9
:1012F000BDE80840024800F081BD00BF0010014079
:10130000003800404FF4005108B50F4800F0EEFBE4
:1013100002210E4800F084FD0028F9D048F28071C7
:101320000A4800F069FD0121084800F079FD002815
:10133000F9D005484FF4005100F0D6FBBDE8084055
:10134000024800F05BBD00BF0010014000380040C3
:101350004FF4005108B50F4800F0C8FB02210E48B9
:1013600000F05EFD0028F9D048F24B710A4800F009
:1013700043FD0121084800F053FD0028F9D005483D
:101380004FF4005100F0B0FBBDE80840024800F007
:1013900035BD00BF00100140003800404FF400513F
:1013A00010B5204800F0A2FB02211F4800F038FDD4
:1013B0000028F9D041F2FF111B4800F01DFD01216A
:1013C000194800F02DFD0028F9D04FF400511548C0
:1013D00000F08AFB144800F011FD0446C4F34604F3
:1013E000403C4FF400510F48A4B200F07FFB0221B3
:1013F0000D4800F015FD0028F9D048F680710A4824
:1014000000F0FAFC0121084800F00AFD0028F9D09C
:101410004FF40051034800F067FB034800F0EEFC76
:1014200060B210BD0010014000380040C37813B313
:10143000174A30B5D1684FF0010EC9430F238278A7
:1014400090F801C00078C1F3022100F01F040EFAE9
:1014500004F4CB40C1F1040E13400CFA0EFC0D4D08
:1014600043EA0C031B012A18DBB2400982F800335F
:1014700045F8204030BD0121037806485A0903F0A1
:101480001F03203201FA03F340F82230704700BFF7
:1014900000ED00E000E100E021F06041024B21F0AE
:1014A0007F0101439960704700ED00E021B1054BD9
:1014B0001A69104318617047024A136923EA000051
:1014C0001061704700ED00E0436891F804C023F418
:1014D000702310B423F480730C6843EA0C23234375
:1014E000436083680A4A91F805C01A40D1E9024373
:1014F0002343134343EA4C0383600A7CC36A013AE3
:1015000023F47003D2B243EA025310BCC3627047A3
:10151000FDF7F1FF836819B143F001038360704761
:1015200023F0010383607047836819B143F480732B
:101530008360704723F4807383607047836843F04F
:1015400008038360704700BF8068C0F3C000704725
:10155000836843F004038360704700BF8068C0F372
:1015600080007047836819B143F4A003836070471B
:1015700023F4A00383607047092910B52FD94FF0D9
:10158000070EA1F10A0CC4680CEB4C0C03FA0CF327
:101590000EFA0CFC24EA0C0C43EA0C03C360062A86
:1015A0004FF01F0C0CD8013A446B02EB820201FA97
:1015B00002F30CFA02F224EA02021343436310BD61
:1015C0000C2A1AD8073A046B02EB820201FA02F3E2
:1015D0000CFA02F224EA02021343036310BD4FF037
:1015E000070C046901EB410E0CFA0EFC03FA0EF332
:1015F00024EA0C0423430361D1E70D3AC46A02EBE9
:10160000820201FA02F30CFA02F224EA0202134304
:10161000C36210BD4FF6FE7C00230268394902EA1E
:101620000C0288420260036043608360C36027D07D
:10163000354B98421ED0354B98422DD0344B9842B2
:1016400030D0344B984221D0334B984230D0334B7A
:10165000984239D0324B98423CD0324B98422DD0F0
:10166000314B98423CD0314B98423FD0304B98425E
:1016700042D070472F4A536843F0F00353607047DD
:101680002C4A536843F00F0353607047294A53684C
:1016900043F4702353607047264A536843F47063E1
:1016A00053607047234A536843F470435360704754
:1016B000204A536843F47003536070471E4A5368CE
:1016C00043F0F003536070471A4A536843F0706365
:1016D00053607047184A536843F00F0353607047D4
:1016E000154A536843F4706353607047124A536855
:1016F00043F47043536070470F4A536843F47023B8
:101700005360B6E7080002401C000240300002406F
:1017100044000240580002406C0002408000024039
:10172000080402401C040240300402404404024009
:101730005804024000000240000402408B6810B4CC
:101740000C6A0A6923431343D1E905241343234355
:10175000CC69026823434C6A22F4FF4223438C6A1B
:1017600022F070022343CC6813430360D1E90023C5
:101770004460826010BCC360704700BF21B1036841
:1017800043F00103036070474FF6FE720368134095
:1017900003607047034A136803F038030343136080
:1017A000704700BF00200240044B196821F010016F
:1017B00019601A6802431A60704700BF0020024097
:1017C00000B591F803C01CF0100F18BF8B780CF017
:1017D0000F0E18BF4EEA030E0B88DAB2002A36D07D
:1017E000BCF1480F026800F0B380BCF1280F00F094
:1017F0003A81D90744BF22F00F024EEA020299074C
:1018000044BF22F0F00242EA0E12590744BF22F40C
:10181000706242EA0E22190744BF22F4704242EA83
:101820000E32D90644BF22F4702242EA0E429906D3
:1018300044BF22F4700242EA0E52590644BF22F01D
:10184000706242EA0E62190600F10A810260FF2B03
:101850004AD9BCF1480F426848D1D90506D54FF4A2
:10186000807122F00F024EEA02020161990506D54D
:101870004FF4007122F0F00242EA0E1201615905A4
:1018800006D54FF4806122F4706242EA0E220161B3
:10189000190506D54FF4006122F4704242EA0E3277
:1018A0000161D90406D54FF4805122F4702242EA36
:1018B0000E420161990406D54FF4005122F47002E2
:1018C00042EA0E520161590406D54FF4804122F0DC
:1018D000706242EA0E6201611B0404D54FF40043BA
:1018E0006EF31F72036142605DF804FBBCF1280FC8
:1018F0006ED0D90544BF22F00F024EEA02029905CC
:1019000044BF22F0F00242EA0E12590544BF22F40D
:10191000706242EA0E22190544BF22F4704242EA84
:101920000E32D90444BF22F4702242EA0E429904D6
:1019300044BF22F4700242EA0E52590444BF22F01E
:10194000706242EA0E621B04CDD56EF31F72CAE7C5
:10195000D90705D5012122F00F024EEA02020161EA
:10196000990705D5022122F0F00242EA0E12016128
:10197000590705D5042122F4706242EA0E22016162
:10198000190705D5082122F4704242EA0E3201619E
:10199000D90605D5102122F4702242EA0E420161D7
:1019A000990605D5202122F4700242EA0E52016107
:1019B000590605D5402122F0706242EA0E620161AB
:1019C00019067FF543AF80216EF31F7201613DE779
:1019D000D90506D54FF4807122F00F024EEA0202BB
:1019E0004161990506D54FF4007122F0F00242EAF8
:1019F0000E124161590506D54FF4806122F47062E0
:101A000042EA0E224161190506D54FF4006122F425
:101A1000704242EA0E324161D90406D54FF480513A
:101A200022F4702242EA0E424161990406D54FF435
:101A3000005122F4700242EA0E524161590406D567
:101A40004FF4804122F0706242EA0E6241611B0451
:101A50007FF549AF4FF400436EF31F72436142E7D5
:101A60006EF31F72F2E6D90705D5012122F00F02AD
:101A70004EEA02024161990705D5022122F0F002E7
:101A800042EA0E124161590705D5042122F4706221
:101A900042EA0E224161190705D5082122F470425D
:101AA00042EA0E324161D90605D5102122F4702296
:101AB00042EA0E424161990605D5202122F47002C6
:101AC00042EA0E524161590605D5402122F070626A
:101AD00042EA0E62416119067FF5B8AE80216EF3CD
:101AE0001F724161B2E600BF0161704741617047FA
:101AF00000281A4B00F44012B4BFDB695B68B2F5F2
:101B0000401F10B41FFA80FC1FD0C20214D503225C
:101B1000C0F30344A24023EA020343F0706321B1FF
:101B2000420D12010CFA02F213430C4A002810BCB9
:101B3000B4BFD36153607047420D12010CFA02F238
:101B400023EA020343F07063E9E7044C23F0706377
:101B5000626822F070626260E1E700BF000001404D
:101B600010B400204FF41F040D4B0E4A196841F0C9
:101B70000101196059680A405A601A6822F084729B
:101B800022F480321A601A6822F480221A605A689D
:101B900022F4FE025A609C6010BCD862704700BFFD
:101BA000001002400000FFF80C4BB0F5803F1A68AF
:101BB00022F480321A601A6822F480221A6008D057
:101BC000B0F5802F04D11A6842F4A0221A60704741
:101BD00070471A6842F480321A6070470010024061
:101BE000002382B00949019300E04AB90A68019BC9
:101BF00002F4003201330193019BB3F5A06FF4D1DD
:101C0000024B1868C0F3404002B070470010024019
:101C1000034A536823F0030303435360704700BF34
:101C200000100240024B586800F00C00704700BFE3
:101C300000100240034A536823F0F003034353604B
:101C4000704700BF00100240034A536823F4E0636A
:101C500003435360704700BF00100240034A5368BB
:101C600023F4605343EAC0035360704700100240FE
:101C7000034A536823F4404303435360704700BF53
:101C800000100240234A10B4536803F00C03042BE5
:101C900024D0082B26D0204A134602601D491F4A33
:101CA0004C68C4F30314145DE34043604C68C4F310
:101CB0000224145D23FA04F484604C68C4F3C22C3B
:101CC00012F80C40E340C360496810BCC1F3813195
:101CD0000A44127CB3FBF2F303617047104A1346C7
:101CE0000260DBE753685168C3F38343C90303F120
:101CF000020304D40B4A02FB03F30360CEE7D26A6B
:101D0000074902F00F020132B1FBF2F202FB03F3CA
:101D10000360C3E70010024000127A00B400002004
:101D200000366E0100093D00044A536911B11843A1
:101D30005061704723EA0000506170470010024074
:101D4000044A936911B118439061704723EA000077
:101D50009061704700100240044AD36911B11843E2
:101D6000D061704723EA0000D06170470010024044
:101D7000044A136911B118431061704723EA000047
:101D80001061704700100240B1F802C00B888A88C9
:101D900043EA0C03B1F806C013430A8943EA0C0373
:101DA00000B5B1F80AE0B1F80CC0134343EA0E03E2
:101DB000028843EA0C03B1F80EC002F4415243EA30
:101DC0000C0313439BB20380838B0A8A23F40063C2
:101DD0001B041B0C838302825DF804FB038821B182
:101DE0009BB243F040030380704723F040031B0481
:101DF0001B0C0380704700BF81817047808980B2CF
:101E0000704700BF838821B19BB243F004038380F5
:101E1000704723F004031B041B0C8380704700BF32
:101E20000389194214BF012000207047274A038804
:101E300090429BB212D002F5006290420ED0B0F1F7
:101E4000804F0BD0A2F59832904207D002F5806205
:101E5000904203D002F58062904203D14A8823F079
:101E6000700313431A4A904217D002F580629042E1
:101E700013D0CA8823F440739BB21343B1F804C053
:101E80000380124B0A889842A0F82CC002850CD11E
:101E90000B7A038601238382704703808B888385B6
:101EA0000B8803850123838270470A4B9842EFD049
:101EB00003F540639842EBD003F580639842E7D086
:101EC00003F580639842E3D0ECE700BF002C0140AB
:101ED0000010004000340140038821B19BB243F060
:101EE00001030380704723F001031B041B0C0380D4
:101EF000704700BF83899BB212B11943818170473B
:101F000023EA010181817047818470478185704790
:101F1000038A828911EA030092B203D00A4214BFF5
:101F200001200020704700BFC94389B20182704779
:101F300030B504460D46238ACA889BB223F4405329
:101F400013438A892382A389898823F4B05323F019
:101F50000C031B041B0C0B43298987B00B436989B5
:101F600001A80B439BB2A381A38A9BB223F44073C5
:101F70001343A382FFF786FEDDE9033218491948AF
:101F80008C4208BF1346A28903EB830312F4004F6F
:101F90002A6803EB830314BF52009200B3FBF2F3F1
:101FA0006425A0FB0321490905FB11330A01A1891E
:101FB00009040AD41B013233A0FB0313C3F34313F8
:101FC00013439BB2238107B030BDDB003233A0FB4B
:101FD0000313C3F3421313439BB2238107B030BDF5
:101FE000003801401F85EB51838921B19BB243F436
:101FF00000538381704723F400531B041B0C83811F
:10200000704700BF012301F01F0CC1F342110129E9
:1020100003FA0CF30DD002290CBF103014301AB1A2
:102020000268134303607047026822EA03030360F7
:1020300070470C30F3E700BFC1F30801818070479F
:102040008088C0F3080070470388194214BF01203C
:10205000002070470123C1F3421201F01F0C012A36
:1020600003FA0CF313D0022A0CBF028A828A92B2BE
:102070001340028892B243B10123090A03FA01F125
:102080000A4214BF184600207047184670478289DC
:1020900092B21340EDE700BF0123090A8B40DB43F6
:1020A0009BB20380704700BF044A05491368002BA8
:1020B00008BF0B461844106018467047980300206C
:1020C000340400204FF0FF30704700BF4FF400533E
:1020D00000204B60704700BF012070470020704710
:1020E0001046704710467047FEE700002DE9F84F94
:1020F00098464318DBB2174603EB0802D2B2C51864
:10210000154402EB1822D6B2354481468A46EDB218
:102110004FEA182BB8F1000F0AD000243B5D0134C0
:102120001E44F6B2E3B2354498451C46EDB2F5D8EC
:10213000574C40212046FFF787FF0028F9D0B521F2
:102140005348FFF779FF524C40212046FFF77CFFB0
:102150000028F9D04E4C40212046FFF775FF00289B
:10216000F9D062214A48FFF767FF494C40212046D9
:10217000FFF76AFF0028F9D0454C40212046FFF7C1
:1021800063FF0028F9D049464148FFF755FF404C0E
:1021900040212046FFF758FF0028F9D03C4C402151
:1021A0002046FFF751FF0028F9D051463848FFF785
:1021B00043FF374C40212046FFF746FF0028F9D067
:1021C000334C40212046FFF73FFF0028F9D041461D
:1021D0002F48FFF731FF2E4C40212046FFF734FFF8
:1021E0000028F9D02A4C40212046FFF72DFF002877
:1021F000F9D059462648FFF71FFF254C40212046BD
:10220000FFF722FF0028F9D0B8F1000F1AD008F12B
:10221000FF339BB21E4C07F1FF381F4418F8019F93
:1022200040212046FFF710FF0028F9D049462046FC
:10223000FFF702FF40212046FFF706FF0028F9D0F4
:102240004745EBD1124C40212046FFF7FDFE002808
:10225000F9D031460E48FFF7EFFE0D4C40212046E5
:10226000FFF7F2FE0028F9D0094C40212046FFF785
:10227000EBFE0028F9D029460548FFF7DDFE044CA7
:1022800040212046FFF7E0FE0028F9D0BDE8F88F96
:102290000048004010B4844672B60B4C0FCCCCF80A
:1022A0000000CCF80410CCF80820CCF80C300FCC8F
:1022B000CCF81000CCF81410CCF81820CCF81C3056
:1022C00062B610BC704700BF9C03002070B5B2B06E
:1022D0005A22002102A801F069FA0322874B01214A
:1022E00040F201250093062000261346844CADF8E9
:1022F0000420ADF806508DF808100DF10602FFF726
:10230000F5FEC92584F8206084F8216009E094F87E
:10231000213053B90120FDF759FF6B1E13F0FF0563
:1023200003D094F82030002BF1D094F8203033B94A
:102330009DF802009DF80310BDF80430DDE7062388
:1023400000268DF80730BDF804309DF803109DF885
:1023500002000DF10602FFF7C9FEC92584F82060CE
:1023600084F8216009E094F8213053B90120FDF789
:102370002DFF6B1E13F0FF0503D094F82030002BC7
:10238000F1D094F82030002BDDD0212300268DF8E9
:102390000730BDF804309DF803109DF802000DF1E0
:1023A0000602FFF7A3FEC92584F8206084F82160A7
:1023B00009E094F8213053B90120FDF707FF6B1EA7
:1023C00013F0FF0503D094F82030002BF1D094F8DF
:1023D0002030002BDDD0122300268DF80730BDF809
:1023E00004309DF803109DF802000DF10602FFF77E
:1023F0007DFEC92584F8206084F8216009E094F806
:10240000213053B90120FDF7E1FE6B1E13F0FF05EB
:1024100003D094F82030002BF1D094F82030002B1A
:10242000DDD0032300268DF80730BDF804309DF879
:1024300003109DF802000DF10602FFF757FEC925B3
:1024400084F8206084F8216009E094F8213053B9C1
:102450000120FDF7BBFE6B1E13F0FF0503D094F8BF
:102460002030002BF1D094F82030002BDDD05A2200
:1024700000211BA801F09AF940F2062142F21072E5
:102480002048242319900220ADF86C10ADF872207A
:1024900005214FF064128DF881001B480026CDE91C
:1024A0001E208DF8761006201946184AADF8746083
:1024B0001A920DF16A02FFF719FEC92584F820600F
:1024C00084F8216009E094F8213053B90120FDF728
:1024D0007DFE6B1E13F0FF0503D094F82030002B17
:1024E000F1D094F8203033B99DF866009DF867105C
:1024F000BDF86830DDE732B070BD00BFB5620601DF
:102500009C030020B56206246400C8002400FF0379
:102510002DE9F04301219BB04FF41650FEF71EF950
:10252000FEF792F94FF44870FDF750FE6222002149
:1025300001A801F03BF94FF40C6200234FF4164060
:102540004FF001110DF10906ADF80E20402532467D
:102550004FF01A08614CADF81030ADF81430604BF4
:102560000194ADF81200CDF816100DF11D0702937D
:1025700012F8013F43445FFA83F845449742EDB2B5
:10258000F6D140215748FFF75FFD0028F9D0B5216B
:102590005448FFF751FD534C40212046FFF754FDAE
:1025A0000028F9D040214F48FFF74EFD0028F9D010
:1025B00062214C48FFF740FD4A4C40212046FFF77E
:1025C00043FD0028F9D040214648FFF73DFD002893
:1025D000F9D006214348FFF72FFD424C4021204609
:1025E000FFF732FD0028F9D040213E48FFF72CFDCF
:1025F0000028F9D000213B48FFF71EFD394C40214F
:102600002046FFF721FD0028F9D040213548FFF78B
:102610001BFD0028F9D014213248FFF70DFD314C85
:1026200040212046FFF710FD0028F9D040212D4819
:10263000FFF70AFD0028F9D000212A48FFF7FCFC2B
:10264000284C40212046FFF7FFFC0028F9D0254CFC
:1026500016F8019F40212348FFF7F6FC0028F9D027
:1026600049462046FFF7E8FC40212046FFF7ECFCF6
:102670000028F9D0BE42EBD140211A48FFF7E4FC14
:102680000028F9D041461748FFF7D6FC154C4021E9
:102690002046FFF7D9FC0028F9D040211148FFF768
:1026A000D3FC0028F9D029460E48FFF7C5FC0D4C95
:1026B00040212046FFF7C8FC0028F9D00A20FDF78A
:1026C00085FD01214FF41640FEF748F80A20FDF77A
:1026D0007DFD1BB0BDE8F043FFF7F8BDB562060015
:1026E0001400010000480040F0B590F802E0C57801
:1026F00084880EEB0502D2B21119C9B272440A44A1
:1027000001EB1421CFB23A44861DD2B25CB1002352
:10271000F15C013339445FFA83FCCFB23A4464453B
:102720006346D2B2F4D8315D3319B94204D03A4A83
:10273000938B01339383F0BD5B789342F7D1BEF165
:10274000010F0BD0BEF1050FF5D1012D60D0002D8A
:10275000F1D10122304B83F82120F0BD072D0ED09E
:10276000022D24D0032D30D0062D3BD0212D47D073
:10277000122DE0D1284BD0F81A20DA60F0BD264B9C
:10278000817E5A8B19750132857B5A83D0F82220BD
:10279000D0F81E10DD741A60C27B59609A74017CF7
:1027A000427FD0F82A4059741A749C60F0BD1A4BCD
:1027B000D0F816105A8B01325A83D0F80A40D0F85C
:1027C0000E209960C3E90024F0BDC27A124B02F0DA
:1027D00001025A75427B598B02F0030201319A754E
:1027E0005983F0BD017C0C4B90F8352019751A7493
:1027F00090F8322090F8331042EA01221A83F0BD9B
:10280000054B847DC17D027EDC7499745A74F0BDE1
:10281000014B83F82050F0BD9C03002010B5204CE4
:1028200094F82230A3B994F823302BB9B52827D0D7
:10283000002384F8233010BD012BF9D16228F7D191
:10284000022284F8223084F8250084F8232010BD69
:1028500094F82330E218042B82F8240004D9228D46
:10286000591E0832914211D00133DBB2632B89BF6C
:10287000002384F8233084F8233084F8223010BDFC
:10288000012384F8240084F8233010BD04F12400CF
:10289000FFF72AFF002384F8233084F8223010BD8C
:1028A0009C030020B1F1000C02464FF6FF705CDD86
:1028B00041F22101944428E0430098B21BB2002B5E
:1028C0002FDB430098B21BB2002B30DB430098B2E1
:1028D0001BB2002B31DB430098B21BB2002B32DB62
:1028E000430098B21BB2002B33DB430098B21BB2FB
:1028F000002B34DB430098B21BB2002BACBF40006E
:1029000081EA4000944580B22ED012F8013B80EA63
:1029100003200304D0D581EA400003B2002B80B22B
:10292000CFDA81EA400003B2002B80B2CEDA81EA2E
:10293000400003B2002B80B2CDDA81EA400003B23E
:10294000002B80B2CCDA81EA400003B2002B80B2C7
:10295000CBDA81EA400003B2002B80B2CADA81EA06
:10296000400003B280B2C8E77047704781F0004171
:1029700002E000BF83F0004330B54FEA41044FEA64
:10298000430594EA050F08BF90EA020F1FBF54EAFF
:10299000000C55EA020C7FEA645C7FEA655C00F09B
:1029A000E2804FEA5454D4EB5555B8BF6D420CDD6C
:1029B0002C4480EA020281EA030382EA000083EAEF
:1029C000010180EA020281EA0303362D88BF30BD8F
:1029D00011F0004F4FEA01314FF4801C4CEA1131E5
:1029E00002D0404261EB410113F0004F4FEA033344
:1029F0004CEA133302D0524263EB430394EA050FCF
:102A000000F0A780A4F10104D5F1200E0DDB02FA3D
:102A10000EFC22FA05F2801841F1000103FA0EF2D1
:102A2000801843FA05F359410EE0A5F120050EF197
:102A3000200E012A03FA0EFC28BF4CF0020C43FAC8
:102A400005F3C01851EBE37101F0004507D54FF0D5
:102A5000000EDCF1000C7EEB00006EEB0101B1F525
:102A6000801F1BD3B1F5001F0CD349085FEA30006B
:102A70004FEA3C0C04F101044FEA445212F5800F76
:102A800080F09A80BCF1004F08BF5FEA500C50F113
:102A9000000041EB045141EA050130BD5FEA4C0CF6
:102AA000404141EB0101013C28BFB1F5801FE9D253
:102AB00091F0000F04BF01460020B1FA81F308BF76
:102AC0002033A3F10B03B3F120020CDA0C3208DD42
:102AD00002F1140CC2F10C0201FA0CF021FA02F11D
:102AE0000CE002F11402D8BFC2F1200C01FA02F18D
:102AF00020FA0CFCDCBF41EA0C019040E41AA2BFB2
:102B000001EB0451294330BD6FEA04041F3C1CDA79
:102B10000C340EDC04F11404C4F1200220FA04F099
:102B200001FA02F340EA030021FA04F345EA030143
:102B300030BDC4F10C04C4F1200220FA02F001FA05
:102B400004F340EA0300294630BD21FA04F0294687
:102B500030BD94F0000F83F4801306BF81F4801120
:102B60000134013D4EE77FEA645C18BF7FEA655C93
:102B700029D094EA050F08BF90EA020F05D054EA65
:102B8000000C04BF1946104630BD91EA030F1EBF6A
:102B90000021002030BD5FEA545C05D1400049416E
:102BA00028BF41F0004130BD14F580043CBF01F561
:102BB000801130BD01F0004545F0FE4141F4700147
:102BC0004FF0000030BD7FEA645C1ABF1946104622
:102BD0007FEA655C1CBF0B46024650EA013406BF23
:102BE00052EA033591EA030F41F4002130BD00BFE2
:102BF00090F0000F04BF0021704730B54FF480649F
:102C000004F132044FF000054FF0000150E700BF1F
:102C100090F0000F04BF0021704730B54FF480647E
:102C200004F1320410F0004548BF40424FF000016B
:102C30003EE700BF42004FEAE2014FEA31014FEAAE
:102C400002701FBF12F07F4393F07F4F81F06051FD
:102C5000704732F07F4208BF704793F07F4F04BF48
:102C600041F40021704730B54FF4607401F0004525
:102C700021F000411CE700BF50EA010208BF704785
:102C800030B54FF000050AE050EA010208BF704776
:102C900030B511F0004502D5404261EB41014FF4DF
:102CA000806404F132045FEA915C3FF4D8AE4FF0E7
:102CB00003025FEADC0C18BF03325FEADC0C18BFCA
:102CC000033202EBDC02C2F1200300FA03FC20FA1B
:102CD00002F001FA03FE40EA0E0021FA02F1144468
:102CE000BDE600BF70B54FF0FF0C4CF4E06C1CEA81
:102CF00011541DBF1CEA135594EA0C0F95EA0C0FF2
:102D000000F0DEF82C4481EA030621EA4C5123EA64
:102D10004C5350EA013518BF52EA033541F4801193
:102D200043F4801338D0A0FB02CE4FF00005E1FB46
:102D300002E506F00042E0FB03E54FF00006E1FB90
:102D400003569CF0000F18BF4EF0010EA4F1FF04D3
:102D5000B6F5007F64F5407404D25FEA4E0E6D4113
:102D600046EB060642EAC62141EA55514FEAC52024
:102D700040EA5E504FEACE2EB4F1FD0C88BFBCF5A0
:102D8000E06F1ED8BEF1004F08BF5FEA500E50F151
:102D9000000041EB045170BD06F0004646EA010117
:102DA00040EA020081EA0301B4EB5C04C2BFD4EB49
:102DB0000C0541EA045170BD41F480114FF0000E42
:102DC000013C00F3AB8014F1360FDEBF002001F0B0
:102DD000004170BDC4F10004203C35DA0C341BDC2A
:102DE00004F11404C4F1200500FA05F320FA04F0FC
:102DF00001FA05F240EA020001F0004221F0004130
:102E000010EBD37021FA04F642EB06015EEA430EA2
:102E100008BF20EAD37070BDC4F10C04C4F12005D2
:102E200000FA04F320FA05F001FA04F240EA020085
:102E300001F0004110EBD37041F100015EEA430E56
:102E400008BF20EAD37070BDC4F1200500FA05F276
:102E50004EEA020E20FA04F301FA05F243EA0203F5
:102E600021FA04F001F0004121FA04F220EA020004
:102E700000EBD3705EEA430E08BF20EAD37070BD4A
:102E800094F0000F0FD101F00046400041EB01012A
:102E900011F4801F08BF013CF7D041EA060195F00C
:102EA000000F18BF704703F00046520043EB0303C6
:102EB00013F4801F08BF013DF7D043EA06037047B3
:102EC00094EA0C0F0CEA135518BF95EA0C0F0CD0BE
:102ED00050EA410618BF52EA4306D1D181EA030104
:102EE00001F000414FF0000070BD50EA410606BFFE
:102EF0001046194652EA430619D094EA0C0F02D143
:102F000050EA013613D195EA0C0F05D152EA033687
:102F10001CBF104619460AD181EA030101F00041A5
:102F200041F0FE4141F470014FF0000070BD41F0EE
:102F3000FE4141F4780170BD70B54FF0FF0C4CF4C8
:102F4000E06C1CEA11541DBF1CEA135594EA0C0FE7
:102F500095EA0C0F00F0A7F8A4EB050481EA030E34
:102F600052EA03354FEA013100F088804FEA03331B
:102F70004FF0805545EA131343EA12634FEA0222E9
:102F800045EA111545EA10654FEA00260EF00041AA
:102F90009D4208BF964244F1FD0404F5407402D2FC
:102FA0005B084FEA3202B61A65EB03055B084FEA8D
:102FB00032024FF480104FF4002CB6EB020E75EB8A
:102FC000030E22BFB61A754640EA0C005B084FEAB2
:102FD0003202B6EB020E75EB030E22BFB61A75462F
:102FE00040EA5C005B084FEA3202B6EB020E75EB7A
:102FF000030E22BFB61A754640EA9C005B084FEAF2
:103000003202B6EB020E75EB030E22BFB61A7546FE
:1030100040EADC0055EA060E18D04FEA051545EAED
:1030200016754FEA06164FEAC30343EA52734FEA96
:10303000C2025FEA1C1CC0D111F4801F0BD141EA0F
:1030400000014FF000004FF0004CB6E711F4801F74
:1030500004BF01430020B4F1FD0C88BFBCF5E06F54
:103060003FF6AFAEB5EB030C04BFB6EB020C5FEA64
:10307000500C50F1000041EB045170BD0EF0004EB9
:103080004EEA113114EB5C04C2BFD4EB0C0541EAEB
:10309000045170BD41F480114FF0000E013C90E6E8
:1030A00045EA060E8DE60CEA135594EA0C0F08BFAC
:1030B00095EA0C0F3FF43BAF94EA0C0F0AD150EAAB
:1030C00001347FF434AF95EA0C0F7FF425AF10463E
:1030D00019462CE795EA0C0F06D152EA03353FF466
:1030E000FDAE1046194622E750EA410618BF52EAE3
:1030F00043067FF4C5AE50EA41047FF40DAF52EAB7
:1031000043057FF4EBAE12E74A0011D212F500122C
:1031100011D20DD56FF47873B3EB62520ED44FEA2F
:10312000C12343F0004343EA505323FA02F07047AF
:103130004FF00000704750EA013002D14FF0FF30ED
:1031400070474FF00000704780F0004002E000BF81
:1031500081F0004142001FBF5FEA410392EA030F82
:103160007FEA226C7FEA236C6AD04FEA1262D2EBCC
:103170001363C1BFD218414048404140B8BF5B42D1
:10318000192B88BF704710F0004F40F4000020F06A
:103190007F4018BF404211F0004F41F4000121F080
:1031A0007F4118BF494292EA030F3FD0A2F10102CA
:1031B00041FA03FC10EB0C00C3F1200301FA03F108
:1031C00000F0004302D5494260EB4000B0F5000F2B
:1031D00013D3B0F1807F06D340084FEA310102F1EA
:1031E0000102FE2A51D2B1F1004F40EBC25008BF9C
:1031F00020F0010040EA03007047490040EB000066
:10320000013A28BFB0F5000FEDD2B0FA80FCACF166
:10321000080CB2EB0C0200FA0CF0AABF00EBC25093
:1032200052421843BCBFD0401843704792F0000F81
:1032300081F4000106BF80F400000132013BB5E7D4
:103240004FEA41037FEA226C18BF7FEA236C21D04A
:1032500092EA030F04D092F0000F08BF08467047AF
:1032600090EA010F1CBF0020704712F07F4F04D17D
:10327000400028BF40F00040704712F100723CBF90
:1032800000F50000704700F0004343F0FE4040F4BA
:10329000000070477FEA226216BF08467FEA236378
:1032A0000146420206BF5FEA412390EA010F40F463
:1032B000800070474FF0000304E000BF10F00043AF
:1032C00048BF40425FEA000C08BF704743F0964396
:1032D00001464FF000001CE050EA010208BF7047B1
:1032E0004FF000030AE000BF50EA010208BF704738
:1032F00011F0004302D5404261EB41015FEA010C4D
:1033000002BF84460146002043F0B64308BFA3F144
:103310008053A3F50003BCFA8CF2083AA3EBC25326
:1033200010DB01FA02FC634400FA02FCC2F1200245
:10333000BCF1004F20FA02F243EB020008BF20F07C
:103340000100704702F1200201FA02FCC2F12002E2
:1033500050EA4C0021FA02F243EB020008BF20EAD7
:10336000DC7070474FF0FF0C1CEAD0521EBF1CEA05
:10337000D15392EA0C0F93EA0C0F6FD01A4480EAF3
:10338000010C400218BF5FEA41211ED04FF00063DC
:1033900043EA501043EA5111A0FB01310CF0004008
:1033A000B1F5000F3EBF490041EAD3715B0040EA2E
:1033B000010062F17F02FD2A1DD8B3F1004F40EBFE
:1033C000C25008BF20F00100704790F0000F0CF0D1
:1033D000004C08BF49024CEA502040EA51207F3A95
:1033E000C2BFD2F1FF0340EAC250704740F4000070
:1033F0004FF00003013A5DDC12F1190FDCBF00F061
:1034000000407047C2F10002410021FA02F1C2F10E
:10341000200200FA02FC5FEA310040F1000053EAAA
:103420004C0308BF20EADC70704792F0000F00F0F8
:10343000004C02BF400010F4000F013AF9D040EAFE
:103440000C0093F0000F01F0004C02BF490011F492
:10345000000F013BF9D041EA0C018FE70CEAD15390
:1034600092EA0C0F18BF93EA0C0F0AD030F0004C10
:1034700018BF31F0004CD8D180EA010000F00040C4
:10348000704790F0000F17BF90F0004F084691F082
:10349000000F91F0004F14D092EA0C0F01D14202BC
:1034A0000FD193EA0C0F03D14B0218BF084608D185
:1034B00080EA010000F0004040F0FE4040F40000CF
:1034C000704740F0FE4040F4400070474FF0FF0C62
:1034D0001CEAD0521EBF1CEAD15392EA0C0F93EAA9
:1034E0000C0F69D0A2EB030280EA010C49024FEAFB
:1034F000402037D04FF0805343EA111143EA1013B4
:103500000CF000408B4238BF5B0042F17D024FF46B
:10351000000C8B4224BF5B1A40EA0C00B3EB510F46
:1035200024BFA3EB510340EA5C00B3EB910F24BF2F
:10353000A3EB910340EA9C00B3EBD10F24BFA3EBB4
:10354000D10340EADC001B0118BF5FEA1C1CE0D17C
:10355000FD2A3FF650AF8B4240EBC25008BF20F02F
:10356000010070470CF0004C4CEA50207F32C2BF83
:10357000D2F1FF0340EAC250704740F400004FF020
:103580000003013A37E792F0000F00F0004C02BF51
:10359000400010F4000F013AF9D040EA0C0093F01B
:1035A000000F01F0004C02BF490011F4000F013B75
:1035B000F9D041EA0C0195E70CEAD15392EA0C0FDD
:1035C00008D142027FF47DAF93EA0C0F7FF470AF15
:1035D000084676E793EA0C0F04D14B023FF44CAF58
:1035E00008466EE730F0004C18BF31F0004CCAD1ED
:1035F00030F000427FF45CAF31F000437FF43CAF29
:103600005FE700BF4FF0FF3C06E000BF4FF0010C4A
:1036100002E000BF4FF0010C4DF804CD4FEA40022C
:103620004FEA41037FEA226C18BF7FEA236C11D076
:1036300001B052EA530C18BF90EA010F58BFB2EB29
:10364000030088BFC81738BF6FEAE17018BF40F0A9
:10365000010070477FEA226C02D15FEA402C05D15D
:103660007FEA236CE4D15FEA412CE1D05DF8040BE2
:10367000704700BF844608466146FFE70FB5FFF775
:10368000C9FF002848BF10F1000F0FBD4DF808ED2D
:10369000FFF7F4FF0CBF012000205DF808FB00BF1E
:1036A0004DF808EDFFF7EAFF34BF012000205DF878
:1036B00008FB00BF4DF808EDFFF7E0FF94BF0120C5
:1036C00000205DF808FB00BF4DF808EDFFF7D2FFC2
:1036D00094BF012000205DF808FB00BF4DF808ED05
:1036E000FFF7C8FF34BF012000205DF808FB00BFD2
:1036F00042000ED2B2F1FE4F0BD34FF09E03B3EB5C
:10370000126209D44FEA002343F0004323FA02F087
:1037100070474FF00000704712F1610F01D1420273
:1037200002D14FF0FF3070474FF00000704700BFEC
:103730001FB514461A46094B05461B68D8684CB19C
:10374000074BCDE9013400912B46064900F00EF8F5
:10375000FEF7CAFC044B1C46F3E700BFC80000207C
:103760001747000824470008524700080EB403B565
:10377000014603AB054853F8042B0068019300F0A1
:1037800045F802B05DF804EB03B07047C8000020B4
:103790000A44914200F1FF3300D1704710B511F88F
:1037A000014B914203F8014FF9D110BD0346024489
:1037B000934200D1704703F8011BF9E7936810B4F6
:1037C000013B002B936007DA9469A34201DB0A29CD
:1037D00002D110BC00F0E0BA1368581C10601970D8
:1037E000084610BC7047F8B506460F461446D51873
:1037F000AC4201D1002007E03A46304614F8011BE4
:10380000FFF7DCFF431CF3D1F8BD00002DE9F04FBA
:103810000D461446984606469DB018B183690BB90B
:1038200000F090FC894B9D421BD175686B6ED907E7
:1038300005D4AB899A0502D4A86D00F021FDAB89AF
:103840001B0701D52B69EBB92946304600F0F6FA83
:10385000C0B16B6EDC070ED54FF0FF301DB0BDE878
:10386000F08F7B4B9D4201D1B568DFE7794B9D42DC
:1038700008BFF568DAE7AB899805EDD4A86D00F0CC
:1038800000FDE9E70023099320238DF82930302338
:103890004FF00109CDF80C80DFF8BC818DF82A309B
:1038A00023469A4613F8012B0AB1252AF9D1BAEB1F
:1038B000040B0BD05B46224629463046FFF793FFA8
:1038C000013000F0AA80099A5A4409929AF800300F
:1038D000002B00F0A28000234FF0FF32CDE905233A
:1038E0000AF1010A049307938DF853301A93544652
:1038F000052214F8011B584800F02AFD049AD8B993
:10390000D10644BF20238DF85330130744BF2B2327
:103910008DF853309AF800302A2B15D054460020E9
:103920004FF00A0C079A214611F8013B303B092B56
:103930004ED9B0B1079214E0A0EB080309FA03F3E3
:103940001343A2460493D2E7039B191D1B680391FE
:10395000002BBBBF5B4242F0020207930793B8BF44
:10396000049223782E2B0CD163782A2B35D1039B1C
:1039700002341A1D1B680392002BB8BF4FF0FF33AF
:103980000593DFF8D8A003225046217800F0E0FC30
:1039900040B14023A0EB0A0003FA00F0049B01347D
:1039A0000343049314F8011B06222D488DF82810B8
:1039B00000F0CEFC00283FD02A4B1BBB039B0733F3
:1039C00023F0070308330393099B3B44099367E7FC
:1039D0000C4601200CFB0232A5E700234FF00A0C35
:1039E000194601340593204610F8012B303A092A74
:1039F00003D9002BC5D00591C3E7044601230CFB76
:103A00000121F0E703AB00932A463046164B04A988
:103A1000AFF300800746781CD6D16B6ED90705D46A
:103A2000AB899A0502D4A86D00F02BFCAB895B062C
:103A30003FF512AF099811E703AB00932A463046D1
:103A4000094B04A900F082F8E4E700BFAC47000886
:103A5000CC4700088C470008584700085E4700081C
:103A60006247000800000000E73700082DE9F04732
:103A7000164699468A680B6907469342B8BF1346B3
:103A8000336091F843200C46DDF820800AB1013301
:103A900033602368990642BF336802333360256878
:103AA00015F0060506D104F1190AE36832689B1A7D
:103AB000AB4228DC94F84320131E226818BF012370
:103AC00092062DD44946384604F14302C0470130DE
:103AD00020D02368E56803F00603042B18BF0025F7
:103AE00032684FF00006A36808BFAD1A226908BF0C
:103AF00025EAE5759342C4BF9B1AED181A34B54206
:103B00001AD1002008E00123524649463846C047F2
:103B1000013003D14FF0FF30BDE8F0870135C4E735
:103B20003020E11881F843005A1C94F845102244D3
:103B3000023382F84310C5E701232246494638463E
:103B4000C0470130E6D00136D9E700002DE9FF4734
:103B50000F7E9146782F80460C469A460C9D01F1C7
:103B6000430207D8622F0AD8002F00F0D980582FBF
:103B700000F0A48004F1420584F842703AE0A7F115
:103B80006303152BF6D801A151F823F0E53B00089B
:103B9000F93B0008753B0008753B0008753B0008C1
:103BA000753B0008F93B0008753B0008753B0008B1
:103BB000753B0008753B0008073D0008293C0008DC
:103BC000E93C0008753B0008753B0008293D0008EA
:103BD000753B0008293C0008753B0008753B000850
:103BE000F13C00082B681A1D1B682A6004F142058D
:103BF00084F842300123A4E020682968060601F118
:103C000004030AD50E682B60002E03DA2D237642BA
:103C100084F843300A235E4819E00E6810F0400F24
:103C20002B6018BF36B2EFE72B682068191D29609A
:103C3000010601D51E6802E04606FBD51E886F2FDF
:103C40000CBF08230A235248002184F843106568FA
:103C5000002DA8BF2168A560A4BF21F00401216048
:103C60000EB9002D4DD01546B6FBF3F103FB1167DD
:103C7000C75D05F8017D3746BB420E46F4D9082BD7
:103C80000BD12368DE0708D5236961689942DEBF3E
:103C9000302305F8013C05F1FF35521B22614B46EC
:103CA00021464046CDF800A003AAFFF7DFFE013011
:103CB0004CD14FF0FF3004B0BDE8F087344881F8B4
:103CC00045702968236851F8046B29601D0614D5D6
:103CD000DF0744BF43F0200323601EB9236823F0AD
:103CE000200323601023AFE7236843F02003236001
:103CF0007823284884F84530E3E7590648BFB6B230
:103D0000E6E71546BBE72B682668181D6169286041
:103D100035061B6801D5196002E07006FBD51980D5
:103D2000002315462361BAE72B6800211A1D2A607B
:103D30001D686268284600F00BFB08B1401B6060FC
:103D400063682361002384F84330A8E72A46494684
:103D500040462369D0470130ABD023689B0713D47A
:103D6000E068039B9842B8BF1846A4E70123324697
:103D700049464046D04701309BD00135E36803995E
:103D80005B1AAB42F2DCEBE7002504F11906F5E71C
:103D9000694700087A470008F8B50E4614460546FC
:103DA00018B183690BB900F0CDF9214B9C422BD19E
:103DB0006C68A369A360A3891A072FD523696BB325
:103DC00023692068F6B2C01A63693746834204DC6F
:103DD0002146284600F022F930BBA3680130013BA0
:103DE000A36023685A1C22601E706369834204D05A
:103DF000A389DB0706D50A2E04D12146284600F008
:103E00000DF988B93846F8BD0A4B9C4201D1AC681F
:103E1000CFE7094B9C4208BFEC68CAE72146284619
:103E200000F00CF80028CBD04FF0FF37EAE700BFD6
:103E3000AC470008CC4700088C470008324B70B5EF
:103E40001D6806460C4625B1AB6913B9284600F03B
:103E500079F92E4B9C420FD16C68A389B4F90C20E0
:103E600019072CD4DD0611D40923336042F0400336
:103E70004FF0FF30A3813EE0254B9C4201D1AC685E
:103E8000EBE7244B9C4208BFEC68E6E7580712D5E5
:103E9000616B41B104F14403994202D0304600F015
:103EA00065FA00236363A38923F02403A38100231D
:103EB000636023692360A38943F00803A381236916
:103EC0004BB9A38903F42073B3F5007F03D02146D7
:103ED000304600F0FDF9A089B4F90C2010F0010380
:103EE0000AD00023A36063695B42A361236943B9DD
:103EF00010F08000BAD170BD810758BF6369A3601C
:103F0000F4E70020F7E700BFC8000020AC47000836
:103F1000CC4700088C4700088A89F8B50546100789
:103F20000C4657D44B68002B04DC0B6C002B01DCD7
:103F30000020F8BDE66A002EFAD0002312F4805269
:103F40002F682B6032D0606DA3895A0705D563684E
:103F5000C01A636B0BB1236CC01A00230246E66AD9
:103F60002846216AB047431CA38906D129681D2928
:103F70002CD8294ACA40D60728D500226260226977
:103F8000D904226004D5421C01D12B6803B96065B5
:103F9000616B2F600029CBD004F14403994202D019
:103FA000284600F0E3F900206063C2E7216A01239C
:103FB0002846B047411CC7D12B68002BC4D01D2B0D
:103FC00001D0162B01D12F60B2E7A38943F0400343
:103FD000A381AEE70F69002FAAD0930718BF002373
:103FE0000E6808BF4B69F61B0F608B60002E9FDDCB
:103FF00033463A462846216AD4F828C0E0470028CC
:1040000006DCA3894FF0FF3043F04003A38190E723
:104010000744361AEAE700BF0100402038B50B69B3
:1040200005460C4613B90025284638BD18B18369EA
:104030000BB900F087F8144B9C421BD16C68B4F9A3
:104040000C30002BEFD0626ED00704D4990502D457
:10405000A06D00F015F928462146FFF75DFF636E5D
:104060000546DA07E0D4A3899B05DDD4A06D00F0F6
:1040700008F9D9E7054B9C4201D1AC68DFE7044B56
:104080009C4208BFEC68DAE7AC470008CC47000860
:104090008C470008002310B50446C0E90033C0E98E
:1040A0000433836081814366C2818361194608229B
:1040B0005C30FFF77BFB054B24626362044BA36219
:1040C000044BE362044B236310BD00BFD1440008DE
:1040D000F34400082B4500084F450008014900F053
:1040E000AFB800BF1D400008682270B54D1E554393
:1040F0000E4605F1740100F081F9044640B100213B
:10410000C0E900160C30A06005F16802FFF74EFB15
:10411000204670BD014800F0B3B800BF260400205F
:10412000014800F0AEB800BF26040020014800F0AE
:10413000A7B800BF27040020014800F0A2B800BFC4
:104140002704002010B50446FFF7F0FFA3691BB158
:10415000BDE81040FFF7F0BFC4E912332365134BED
:10416000134A1B68A262A34208BF0123204608BF6E
:10417000A36100F01FF86060204600F01BF8A0600B
:10418000204600F017F800220421E0606068FFF785
:1041900081FF01220921A068FFF77CFF0222122182
:1041A000E068FFF777FF0123A361D1E754470008D8
:1041B000DD400008F8B50746FFF7ACFF1E4B1E6850
:1041C000B36913B93046FFF7BDFF4836D6E901346D
:1041D000013B03D533680BB33668F7E7B4F90C50ED
:1041E000D5B9164B04F15800E360656600F047F856
:1041F000FFF796FF08222946C4E90155C4E9045592
:104200002560A56104F15C00FFF7D0FAC4E90D5503
:10421000C4E912552046F8BD6834D9E70421384670
:10422000FFF762FF044630600028D5D1FFF778FF22
:104230000C233B60EEE700BF544700080100FFFF7E
:104240002DE9F84306468846002700F14804D4E9E2
:104250000195B9F1010905D52468002CF7D138463C
:10426000BDE8F883AB89012B07D9B5F90E300133CE
:1042700003D029463046C04707436835E9E7704711
:104280007047704770B50E46B1F90E1014460029FC
:104290001D4696B008DA0022B6F90C302A601A06DC
:1042A00010D44FF480630EE06A4600F077F90028DE
:1042B000F1DB019A02F47042A2F500535A425A41CE
:1042C0002A60EEE740230020236016B070BD000096
:1042D0008B8973B59D0706460C4607D504F1470345
:1042E000236023610123636102B070BD6A4601ABA4
:1042F000FFF7C8FF00990546304600F07FF848B93F
:10430000B4F90C309A05EFD423F0030343F0020311
:10431000A381E3E70D4BB362A389206043F08003E0
:10432000A381009B20616361019B5BB13046B4F9BE
:104330000E1000F045F928B1A38923F0030343F0E0
:104340000103A381A0890543A581CDE7DD400008D5
:10435000034610B5C9B202449342184601D1002069
:1043600003E0047801338C42F6D110BD38B5054620
:10437000002940D051F8043C0C1F002BB8BFE418B2
:1043800000F040F91C4A136833B963601460284692
:10439000BDE8384000F03CB9A34208D92068211894
:1043A0008B4201BF19685B6809182160EDE71A4666
:1043B0005B680BB1A342FAD911685018A0420BD127
:1043C00020680144501883421160E0D118685B688E
:1043D000014411605360DAE702D90C232B60D6E761
:1043E000206821188B4201BF19685B680918216099
:1043F00063605460CBE738BD28040020F8B5CD1CBD
:1044000025F0030508350C2D38BF0C25002D064678
:1044100001DBA94203D90C2333600020F8BD00F072
:10442000F1F821490A6814469CB9204F3B6823B92A
:104430002146304600F03CF838602946304600F00E
:1044400037F8431C23D10C233046336000F0E0F8EA
:10445000E3E723685B1B17D40B2B03D923601C44B1
:10446000256004E06368A2420CBF0B6053603046D5
:1044700000F0CEF804F10B00231D20F00700C21A53
:10448000CCD01B1AA350C9E722466468CCE7C41CF1
:1044900024F00304A042E3D0211A304600F008F8CB
:1044A0000130DDD1CFE700BF280400202C0400201C
:1044B00038B50023054D044608462B60FDF7F4FD92
:1044C000431C02D12B6803B1236038BD30040020A7
:1044D00010B50C46B1F90E1000F0A0F80028ABBFE3
:1044E000636DA3891B1823F48053ACBF6365A3815C
:1044F00010BD2DE9F0411F468B890546DB050C46B2
:10450000164605D502230022B1F90E1000F068F816
:10451000A389324623F48053A38128463B46B4F94D
:104520000E10BDE8F04100F017B810B50C46B1F917
:104530000E1000F055F8431CA38915BF606523F4E5
:10454000805343F48053A38118BFA38110BDB1F9F8
:104550000E1000F013B8000038B5044608461146A6
:104560000022054D2A601A46FDF7BCFD431C02D10E
:104570002B6803B1236038BD3004002038B5002318
:10458000054D044608462B60FDF79CFD431C02D1F7
:104590002B6803B1236038BD3004002038B50023F8
:1045A000064D0446084611462B60FDF78FFD431C5F
:1045B00002D12B6803B1236038BD00BF3004002056
:1045C00038B50023054D044608462B60FDF784FDF1
:1045D000431C02D12B6803B1236038BD3004002096
:1045E00038B50446084611460022054D2A601A4691
:1045F000FDF774FD431C02D12B6803B1236038BD65
:10460000300400200148FFF73BBE00BF2504002016
:104610000148FFF736BE00BF2504002038B5044628
:10462000084611460022054D2A601A46FDF758FD3E
:10463000431C02D12B6803B1236038BD3004002035
:10464000706F7574203D3D20286F75747075745FB0
:1046500074785F64617461202B206E756D5F74786F
:104660005F646174615F62797465732900000000A2
:104670002F6D6E742F642F5265706F732F5065729B
:10468000736F6E616C2F525334314855502F686FE1
:104690007275735F6C322E6300000000686F727574
:1046A000735F6C325F656E636F64655F74785F70B3
:1046B00061636B65740000002D0000000A0A0A0A9D
:1046C000242424242425732C25642C253032753A87
:1046D000253032753A253032752C257325642E2508
:1046E00030346C642C257325642E2530346C642C96
:1046F000256C642C25642C25642C25642C256400F1
:104700002A253034580A00001B1B1B1B0000000028
:104710004E3043414C4C002C2066756E6374696FBB
:104720006E3A2000617373657274696F6E20222582
:104730007322206661696C65643A2066696C652045
:10474000222573222C206C696E6520256425732533
:10475000730A0000CC000020232D302B2000686C51
:104760004C00656667454647003031323334353694
:1047700037383941424344454600303132333435CD
:1047800036373839616263646566000000000000F6
:104790000000000000000000000000000000000019
:1047A0000000000000000000000000000000000009
:1047B00000000000000000000000000000000000F9
:1047C00000000000000000000000000000000000E9
:1047D00000000000000000000000000000000000D9
:0C47E000000000000000000000000000CD
:1047EC0002000300050007000B000D001100130070
:1047FC0017001D001F00250029002B002F0035007D
:10480C003B003D004300470049004F005300590056
:10481C006100650067006B006D0071007F00830014
:10482C0089008B00950097009D00A300A700AD00A8
:10483C00B300B500BF00C100C500C700D300DF0046
:10484C00E300E500E900EF00F100FB0001010701C6
:10485C000D010F01150119011B0125013301370150
:10486C0039013D014B0151015B01000001000000C9
:10487C00010000000A0000004E3043414C4C000087
:10488C000000000000000000AB120000D007000088
:10489C004E000000000000000102030401020304AA
:1048AC000607080902040608CC00002000000000DE
:1048BC00AC470008CC4700088C47000800000000FB
:1048CC0000000000000000000000000000000000DC
:1048DC0000000000000000000000000000000000CC
:1048EC0000000000000000000000000000000000BC
:1048FC0000000000000000000000000000000000AC
:0C490C000000000000000000000000009F
:0400000508000000EF
:00000001FF
